:020000040800F2
:10000000E0040020D500000881140008B1130008A6
:1000100000000000000000000000000000000000E0
:10002000000000000000000000000000851400082F
:1000300000000000000000008314000855150008AF
:10004000E7000008E7000008E7000008E7000008F4
:10005000E7000008E7000008E7000008E7000008E4
:10006000E7000008E70000089D030008E70000081B
:10007000E7000008E7000008E7000008E7000008C4
:10008000E7000008E7000008E7000008E7000008B4
:10009000E7000008E7000008E7000008E7000008A4
:1000A000E7000008E7000008E7000008A9190008B9
:1000B000E7000008E7000008E7000008E700000884
:1000C0000348854600F08EF800480047A51C00084C
:1000D000E00400200448804704480047FEE7FEE7AC
:1000E000FEE7FEE7FEE7FEE7CD150008C1000008C9
:1000F00030B50B46014600202022012409E00D46C0
:10010000D5409D4205D31D469540491B2546954047
:1001100040191546521E002DF1DC30BDF0B51FB45C
:100120000646002082B005464024019100901BE065
:10013000019922460F46304600F020F8049A059BAC
:10014000801A994110D310461946224600F039F81A
:10015000361A8F410197224601200021009F00F0AE
:1001600030F838184D4100902046641E0028DFDC2E
:10017000019B00982946324607B0F0BD10B5202AF1
:1001800004DB0846203AD040002110BD0B46D34086
:10019000D0402024A21A91400843194610BDD2B283
:1001A00001E00270401C491EFBD270470022F6E7B6
:1001B00010B513460A4604461946FFF7F0FF2046DD
:1001C00010BD10B5202A04DB0146203A91400020E2
:1001D00010BD914020239C1A0346E34019439040F0
:1001E00010BD0000064C0125064E05E0E36807CC73
:1001F0002B430C3C98471034B442F7D3FFF764FF0D
:10020000E81D0008081E0008F0B58FB0142102A8F0
:10021000FFF7CCFF1E484269012149040A434261AD
:10022000406908400090481202900020039004901A
:10023000092002A9C00600F09BF9002515482901F4
:1002400000240F182E46413604E0002C02DD385DF4
:10025000002815D0395DF0B200F022F801280FD146
:100260003B5D32460CA107A801F0B6FB07A91020A0
:1002700001910346009000216422084601F03EFDF2
:10028000641C102CE1DB6D1C062DD7DB0FB0F0BD1C
:1002900000100240701D00085025632564202000D6
:1002A000F8B50C4606460027012201F0EDF80025BE
:1002B0006400413EE8071ED0330001F0B9FB06049C
:1002C000080C101418432F480122015B1DE02D4833
:1002D0000122015B1FE02B480122015B20E029483D
:1002E0000122015B21E027480122015B22E0254831
:1002F0000122015B23E0330001F09AFB06040A0FA0
:1003000014191E241F480022015B0920C00617E0B3
:100310001C480022015B1C4812E01A480022015BC5
:100320001A480DE017480022015B194808E01548FB
:100330000022015B174803E012480022015B1648C7
:1003400000F0F5F9012000F001F9FF210920013149
:10035000C00600F0E7F9012810D00021EA0F50197B
:1003600042085200A81A814201D17F1CFFB26D1CC5
:100370000A2D9FDB0A2F03D00020F8BD0121EDE7F5
:100380000120F8BD501D0008000400480008004886
:10039000000C0048001000480014004810B5024846
:1003A00000F05CF810BD00009800002010B5044675
:1003B0000068054940181421FFF79AFE8000206468
:1003C0000248E06310BD0000F8FFFDBF00000240DE
:1003D00072B6FEE730B5014620314B780022022B81
:1003E00004D0042383630A70012030BD03681C68B5
:1003F0000E25AC431C6003681C68640864001C6024
:100400000123056C1C46C06BAC4044604B700A7005
:10041000002030BD70B50024014620314A78022A00
:1004200003D004218163012416E0026813680E25BD
:10043000AB431360026813685B085B001360012222
:10044000056C1346AB40C56B6B604A7000220A70A6
:10045000416B002900D08847204670BDF0B4C16BC5
:100460000D6801680C680422066C1346B3402B42E9
:100470000DD063070BD50B689B0602D40B68934322
:100480000B60016C8A40C16B4A60C16A19E00227A7
:10049000B74002462F4001232032002F15D0A70776
:1004A00013D50C68A40604D40C680A25AC430C6070
:1004B0005370036C02219940C36B59600021117085
:1004C000816A002916D0F0BC08470827B7402F42A0
:1004D00010D024070ED50C680E25AC430C60046CBC
:1004E0001946A140C46B6160836353700021117091
:1004F000016BE6E7F0BC704770B5040021D0022123
:100500002046203005464170226811680E48A368D5
:100510000140606826691843E36833431843636900
:100520001843A3691843E369184308431060204641
:10053000FFF73CFF0021A163012068702970084685
:1005400070BD012070BD00000FC0FFFF70B50446F4
:1005500000F0F4F80546601C02D004480078241826
:1005600000F0ECF8401BA042FAD370BD0000002060
:10057000F8B5002303240125BFE02E469E40B44673
:1005800032407CD00E79B607B60F012E01D0022E74
:1005900017D186682746B6465E00B7400096764675
:1005A000BE43B646CF68009EB74076463743876065
:1005B00046686746BE430F79FF06FF0F9F403743EB
:1005C00047600E79F643B6070ED0C6682746B44694
:1005D0005E00B646B7406646BE43B4468F68764670
:1005E000B74066463743C7600E79B607B60F022E8E
:1005F00014D1DE08B60036180096366A5F07B44696
:10060000FE0E0F27B646B7406646BE43B4460F6996
:100610007646B74066463743009E376206682746EF
:10062000B4465E00B646B7406646BE430F79B44650
:10063000BF07BF0F7646B7406646374307604E6830
:10064000B603B60F58D0304FBE692E43BE61BE69A7
:100650009F08F607F60F2D4EBF00BE190096B6682C
:100660000F27B4469E07360FB646B7406646BE43D0
:100670000927FF06B446B84202D1002715E03BE047
:10068000234FB84201D101270FE0224FB84201D1D8
:1006900002270AE0204FB84201D1032705E01F4F8F
:1006A000B84201D1042700E005277646B7406646E8
:1006B0003743009EB7601A4E36684F689643FF0373
:1006C00000D51643164F3E607E684F689643BF03C1
:1006D00000D51643124F7E60BE684F689643FF02F6
:1006E00000D516430E4FBE60FE684F689643BF02AA
:1006F00000D516430A4AD6605B1C0A681646DE40DF
:1007000000D03AE7F8BD00000010024000000140B0
:100710000004004800080048000C00480010004891
:10072000000401400069084000D001207047002A01
:1007300001D0816170478162704700000148806884
:100740007047000000000020024881680278891884
:10075000816070470000002010B506480168102233
:1007600011430160002000F007F800F027F8002096
:1007700010BD00000020024070B504460D4D7D20E4
:100780002978C000FFF7B4FC01460B480068FFF76A
:10079000AFFC00F0ADFB002809D1042C07D20022E9
:1007A0002146401E00F02AF800206C6070BD012038
:1007B00070BD0000000000200C00002008B50848B3
:1007C0008169012211438161816911400091C269EF
:1007D00001040A43C261C0690840009008BD0000DE
:1007E00000100240002805DBC106C90E0120884028
:1007F000014908607047000000E100E010B501F019
:1008000025F910BDF8B504460068434DC00352D524
:10081000E8690026C00007D4E96928040143E961BA
:10082000E9690140012600913C480168C90510D4DE
:100830000168821511430160FFF780FF074604E05D
:10084000FFF77CFFC01B642824D834480068C0052B
:10085000F6D5286A03273F02384020D06168394026
:1008600081421CD0286A2A6AB843012109040A433C
:100870002A622A6A8A432A622862C0070FD0FFF7D9
:100880005DFF009008E0FFF759FF0099411A2448E6
:10089000814201D90320F8BD286A8007F3D5286A70
:1008A0006168B84308432862002E04D0E86901213A
:1008B00009078843E8612078C00705D0286BA16844
:1008C00080088000084328632078800706D5286BBD
:1008D000032109048843E1680843286320788006DF
:1008E00005D5286B102188432169084328632068B7
:1008F000800305D5286B80218843A16908432863BC
:100900002088400505D5286B40218843616908434C
:1009100028630020F8BD0000001002400070004075
:1009200088130000F8B50F4606005FD03D4D2868DB
:10093000C007C00FB84209D22868400840003843B9
:1009400028602868C007C00FB8424FD13068364CC5
:1009500081070CD5400704D56068072109020843C8
:1009600060606068F0218843B16808436060307857
:10097000C0072CD07068012810D0022811D003289D
:1009800012D021688907002930DA61688908890056
:1009900001436160FFF7D2FE009011E021688903F6
:1009A000F1E721688901EEE7616BC903EBE7FFF727
:1009B000C5FE0099411A1D48814201D90320F8BDA6
:1009C00060680C210840716889008842EFD128686E
:1009D000C007C00FB8420BD9286840084000384310
:1009E00028602868C007C00FB84201D00120F8BDB8
:1009F0003078400706D56068072109028843F1680E
:100A00000843606000F028F86168094A0906090F88
:100A1000515CC840074908600020FFF7ADFE002088
:100A2000F8BD0000002002400010024088130000C2
:100A3000D01D00080C0000200448054900684968E2
:100A4000044A4905490F515CC84070470C0000201A
:100A500000100240E01D000830B519A30FCB89B08B
:100A60006C460FC41AA30FCB0FC41D4A51680C204B
:100A70000B4603401B48042B05D01B4D082B04D00C
:100A80000C2B00D1284609B030BD8B021B0F6C46E1
:100A9000E45CD26A04AB1207120FC9039A5C890F97
:100AA000022901D0032901D0002301E000232846B8
:100AB0000021FFF733FB214600F0A2FFE3E700002F
:100AC00002030405060708090A0B0C0D0E0F10108F
:100AD0000102030405060708090A0B0C0D0E0F108E
:100AE0000010024000127A00006CDC02FEB5040027
:100AF00070D02078F94EFA4DC00748D068680007DA
:100B0000800F01281FD068680007800F022804D1D9
:100B10006868C003800F022815D06168012919D0C8
:100B200001208004002901D0052917D02968B1438C
:100B30002960296881432960606800281BD0FFF77D
:100B4000FDFD074613E02868800320D56068002873
:100B5000CED01CE0286830432860EDE729680143C7
:100B60002960F7E7FFF7EAFDC01B642870D8286802
:100B70008003F7D50BE0FFF7E1FD074604E0FFF740
:100B8000DDFDC01B6428F1D828688003F7D42078E5
:100B900080073FD568680007800F14D06868000799
:100BA000800F022804D16868C003800F01280AD092
:100BB000E068002828681ED0012108432860FFF75C
:100BC000BDFD07460CE0286880070CD5E0680128C9
:100BD00000D108E080E1FFF7B1FDC01B0228C5D8B5
:100BE00028688007F7D52868F82188432169C9005B
:100BF000084328600EE0400840002860FFF79EFD93
:100C0000074604E0FFF79AFDC01B0228AED828680B
:100C10008007F7D42078000723D5E0690028686AA8
:100C20000FD0012108436862FFF788FD074604E002
:100C3000FFF784FDC01B022898D8686A8007F7D5A3
:100C40000FE0400840006862FFF778FD074605E0C6
:100C5000C3E0FFF773FDC01B022887D8686A8007CE
:100C6000F7D4207804274007002861DA002001909B
:100C7000E869C00008D4E969B8060143E961E96997
:100C8000014001200091019096480168C90511D4E6
:100C90000168821511430160FFF750FD009005E0E7
:100CA000FFF74CFD0099401A642898D88D480068D9
:100CB000C005F5D5A06801280AD0002801D0052874
:100CC00011D0286A400840002862286AB84302E030
:100CD000286A012108432862A068002812D0FFF783
:100CE0002DFD00900AE0286A38432862F0E7FFF7FC
:100CF00025FD0099411A7C4881426ED8286A8007F8
:100D0000F5D50DE0FFF71AFD009006E0FFF716FDA0
:100D10000099411A744881425FD8286A8007F5D447
:100D20000198002804D0E969012000078143E961A6
:100D30002078C00635D5606901280CD0401D686B4D
:100D400024D038436863686B400840006863FFF74D
:100D5000F5FC074622E0686B38436863686B012145
:100D600008436863FFF7EAFC074604E0FFF7E6FC88
:100D7000C01B022831D8686B8007F7D5686BF82153
:100D80008843A169C900084368630AE0B8436863FF
:100D9000F4E7FFF7D3FCC01B02281ED8686B80075E
:100DA000F7D42078800637D568680007800F0328BD
:100DB00014D068680007800F022804D16868C00357
:100DC000800F03280AD0206A0028686B16D03043B1
:100DD0006863FFF7B3FC06460CE062E0686BC00393
:100DE0001AD5206A012877D116E0FFF7A7FC801BEF
:100DF000022856D8686BC003F7D50DE0B04368638E
:100E0000FFF79CFC064604E0FFF798FC801B0228D5
:100E100047D8686BC003F7D4606A002866D0696859
:100E20000907890F022942D00126360602282868C0
:100E300005D0B0432860FFF781FC044633E0B0439F
:100E40002860FFF77BFC074604E0FFF777FCC01B38
:100E5000022826D828688001F7D4E86A216B0009A7
:100E600000010843E862A16AE06A084369687B22DE
:100E7000D203914308436860286830432860FFF735
:100E80005DFC044604E0FFF759FC001B022808D86B
:100E900028688001F7D529E0FFF750FC001B0228E5
:100EA00001D90320FEBD28688001F5D41EE0012889
:100EB000F8D06868E96A0322D203A36A02409A4222
:100EC0000AD10907226B090F914205D10F2189042C
:100ED0000840E16A884209D00120FEBD00000100FF
:100EE0000010024000700040881300000020F4E76A
:100EF000094910B5401E884201D9012010BD074C98
:100F000060610321081F00F0A1FD0020A0610720FF
:100F10002061002010BD0000FFFFFF0000E000E0A6
:100F20007047704770470000F8B502680446D06902
:100F300011689668A24B03401D462023002D75D0F2
:100F4000F707A04DFF0FBC460D402F436DD025463F
:100F5000C7078035002F06D0CF0504D501271762BB
:100F60002A683A432A60820708D5F20706D0276824
:100F700002223A622A6804273A432A60420708D5C7
:100F8000F20706D02668042232622A68022632431B
:100F90002A6002070AD50A461A406646324305D03F
:100FA0002668082232622E6816432E60020508D594
:100FB0004A0106D501222668D20232622A681A4303
:100FC0002A602A68002A39D0800606D5880604D50A
:100FD000616E002901D02046884728682168896809
:100FE000490602D4282108422DD0204600F090FB6B
:100FF00021688868400622D5EFF31080012282F331
:1010000010888B68402293438B6080F31088206F98
:10101000002814D06C494163206FFFF7FBF90028CA
:101020000CD0206F416B08E000E012E0850610D57F
:101030008D060ED5616EA8E020468847F8BD204693
:10104000FFF770FFF8BD2046FFF76CFF0020286017
:10105000F8BD256E012D7DD1C5067BD5CD0679D590
:101060001026166222689068254640064035002802
:1010700045DA216F086840680004000CE8D02F8B27
:101080008742E5D968838869202833D0EFF3108040
:10109000012181F3108811683701B943116080F391
:1010A0001088EFF31080012181F3108821688A688D
:1010B000520852008A6080F31088EFF310800121FB
:1010C00081F3108821688A684027BA438A6080F3D8
:1010D0001088E36700202066EFF31080012181F380
:1010E000108821680A68B2430A6080F31088206F74
:1010F000FFF770F9288B698B401A81B231E0288B99
:10110000698B401A81B2688B0028A1D000299FD03A
:10111000EFF31080012585F310881568FF2721372C
:10112000BD43156080F31088EFF31080012282F335
:101130001088226895686D086D00956080F31088AE
:10114000E367002020666066EFF31080012282F3DF
:10115000108800E009E022681368B343136080F34D
:1011600010882046FFF7DCFEF8BDC50208D57502E1
:1011700006D50120000510622046FFF7D2FEF8BD1B
:10118000050606D50D0604D5A16E002900D053E74B
:10119000F8BD4006FCD54806FAD52046EFF310818D
:1011A000012484F3108815684024A543156081F359
:1011B000108883670021816600F0F9F8F8BD00000F
:1011C0000F08000020010004FD16000810B50400FF
:1011D00003D0A06F002802D007E0012010BD00213D
:1011E00074200155204600F027F82420A0672068CD
:1011F0000168490849000160204600F0B9FA012859
:10120000ECD0606A002802D0204600F0E0F92068A7
:1012100041680922D20291434160206881682A22F4
:1012200091438160206801680122114301602046DA
:1012300000F032FA10BD000070B586B006461421E9
:101240006846FEF7B3FF2149306888423BD1204908
:101250008A690120800302438A618A6902400592FB
:101260004A69C00002434A614969002501400320E0
:10127000059140020090022001900320039001207C
:101280000490092002956946C006FFF771F91148DC
:10129000114C21C42560A560E56025618020656151
:1012A00060600D48083CFFF727F9002801D0FFF7E0
:1012B0008FF83467002211461B206662FFF79EFA02
:1012C0001B20FFF78FFA06B070BD00000038014008
:1012D000001002403000024098000020FFB5044694
:1012E000806F83B017460D4620285ED1002D0AD0AE
:1012F000002F08D0A168C001814207D120690028D1
:1013000004D1E80702D0012007B0F0BD20466030CC
:101310000090007D012848D000980121017500202F
:10132000802108512120A067FFF708FA26464036A1
:101330000190378277820120A1680003814202D1A7
:101340002069002805D02F46002500990020087547
:1013500011E00027F9E700228021204600F0BAFAC8
:10136000002815D1002F15D02168387808857F1CFA
:10137000708A401E7082708A019B00280698009037
:10138000E9D100224021204600F0A4FA002808D02C
:101390000320B9E728882168C005C00D0885AD1C69
:1013A000E6E72020A0670020AEE70220ACE7704708
:1013B000FEE7000008B50848416901221143416178
:1013C000406910400022009011460A20FFF716FAEB
:1013D0000A20FFF707FA08BD0010024070B586B07A
:1013E00014216846FEF7E2FE15484269012189058D
:1013F0000A43426142690A400592426949110A431F
:1014000042614069092608404D12F6060590002207
:1014100029463046FFF78BF9042000240090019400
:10142000694602940748FFF7A3F80120019002944F
:101430006946009503943046FFF79AF806B070BDF0
:10144000001002400014004810B50C480A49016021
:10145000E1214902416000218160C1600161816137
:10146000C1610C22016242614162FFF7AFFE0028B8
:1014700001D0FEF7ADFF10BD003801401400002080
:10148000FEE770477047000070B586B00E46044610
:10149000154614216846FEF789FE413C2648230084
:1014A00000F0C6FA0604081A1E222610426901211D
:1014B000490402E04269012189040A43426140690A
:1014C000084005901D497000085A00900020002D2A
:1014D00012D00121019110E042690121C904ECE719
:1014E000426901210905E8E7426901214905E4E76C
:1014F000426901218905E0E70190029003902300F1
:1015000000F096FA0604080B0E111418092069461B
:10151000C0060DE069460A480AE06946094807E046
:101520006946094804E06946084801E069460848F8
:10153000FFF71EF806B070BD00100240501D0008F5
:101540000004004800080048000C00480010004853
:101550000014004810B5FFF7F7F810BD70B598B04B
:1015600034216846FEF722FE00250D950E950F9555
:101570001C2111A81095FEF719FE012400942004E7
:101580000A900194000102260B9009960C9568467A
:10159000FFF7ACFA002801D072B6FEE707200D90E5
:1015A0000F9501210E9610950DA8FFF7BBF90028A5
:1015B00001D072B6FEE711A813951194FFF722F936
:1015C000002801D072B6FEE718B070BD704710B5A4
:1015D000818CC90707D001684A6801235B049A43DC
:1015E000836A1A434A60818C890707D501684A6873
:1015F00001231B049A43C36A1A434A60818C49073A
:1016000007D501684A6801239B049A43036B1A4378
:101610004A60818C090707D501684A680123DB030A
:101620009A43436B1A434A60818CC90607D5026806
:10163000916801231B039943836B19439160818C4B
:10164000890607D501688A6801235B039A43C36B47
:101650001A438A60818C490612D503685A680121B1
:101660000905046C8A4322435A60026C8A4207D1FE
:101670000268516803235B059943436C1943516029
:10168000818C090607D501684A680123DB04806C58
:101690009A4302434A6010BDF8B5044600268030E4
:1016A0000660FFF74BF8054620680068124F0007F8
:1016B00009D501212B46002249052046009700F05C
:1016C00009F900280DD12068006840070BD50121D9
:1016D0002B46002289052046009700F0FBF80028E1
:1016E00001D00320F8BD2020A067E06726666034A3
:1016F00026750020F8BD0000FFFFFF0110B5406A0D
:101700000022014640314A834A82FFF70BFC10BD9C
:1017100010B5EFF31081012282F31088026813687C
:10172000FF242134A343136081F31088EFF3108169
:10173000012282F31088026893685B085B00936063
:1017400081F31088016E01290BD1EFF31081012282
:1017500082F31088026813681024A343136081F396
:1017600010882021C16700210166416610BD00007C
:1017700070B5044680682169E26908436169002503
:101780001143084321680A684A4B1A4002430A6021
:1017900020684168032212039143E26811434160CB
:1017A000216AA0690143206882680B231B029A43C7
:1017B0000A438260404A2068404990420AD1086B3F
:1017C0008007800F22D0012816D0022816D00328C7
:1017D0001ED10FE03A4A904212D1096B0320000457
:1017E000014016D001200004091A05D0091A05D0BD
:1017F00081420DD102210CE004210AE0082108E019
:101800003049884202D03049884201D1002100E0AD
:1018100010210120E369C0032C4A2D4E834223D1BD
:10182000002906D0022907D0042907D0082937D17A
:1018300008E0FFF701F903E0104603E0FFF70CF9B9
:10184000002831D0616840004A088018FEF750FC3B
:1018500080B201461039B14222D81D49491C0140CD
:101860000007400F08431DE0002906D0022907D0D9
:10187000042907D0082913D108E0FFF7DDF803E0B9
:10188000104603E0FFF7E8F800280DD061684A0829
:101890001018FEF72DFC80B201461039B14201D973
:1018A000012501E02168C86000206066A066284626
:1018B00070BD0000F369FFEF0038014000100240E6
:1018C0000044004000480040004C004000127A00F4
:1018D000EFFF0000FFB581B00546174604466035AE
:1018E0000A9E55E0701C53D0FEF728FF0499401A59
:1018F000B04230D8002E2ED020680168490747D565
:10190000C069C043000543D401202168C0020862B9
:10191000EFF31080012181F3108821680B68FF220A
:10192000A13293430B6080F31088EFF31080012104
:1019300081F3108821688A68520852008A6080F317
:1019400010882020A067E067803420600020287580
:10195000032005B0F0BDEFF31080012181F3108862
:1019600021680B68FF22A13293430B6080F310883B
:10197000EFF31080012181F3108821688A685208F2
:1019800052008A6080F310882020A067E067DDE7BE
:101990002068C1690298884304D00020B842A1D0D1
:1019A0000020D6E70120F9E710B50248FFF7BCFA9E
:1019B00010BD0000140000200FB410B503A9044BA3
:1019C000044A029800F074F810BC08BC04B0184730
:1019D000891C0008100000200FB410B504A9074BA3
:1019E00002AA039800F064F8044602A9002000F05F
:1019F00045F9204610BC08BC04B018477D1C0008FF
:101A0000F8B5040C8BB2264682B25E430D0C10462C
:101A1000370C5843360480190021794116466E432D
:101A2000370C36048019794126466E438919F8BD72
:101A300030B47446641E2578641CAB4200D21D4647
:101A4000635D5B00E31830BC184700008307FF228A
:101A5000DB0E9A408907090E9940002808DB8308AD
:101A600009489B001B18186890430843186070478A
:101A70000007000F0838830804489B001B18D8692A
:101A800090430843D861704700E400E000ED00E0B7
:101A900002E008C8121F08C1002AFAD17047704737
:101AA000002001E001C1121F002AFBD17047000095
:101AB000FFB58DB00F460546002606E025280AD062
:101AC000109A0F9990476D1C761C28780028F5D144
:101AD000304611B0F0BD00240121674A009400E0B7
:101AE00004436D1C2B780846203B98401042F7D1E8
:101AF00028782E2815D10420044368786D1C2A28E4
:101B00000AD101CF6D1C00900BE000990A225143CD
:101B1000303940186D1C0090287801463039092969
:101B2000F3D92878692843D006DC0028D0D0632870
:101B30000BD0642804D13BE073280FD075284CD01B
:101B4000109A0F999047761C94E03878694608728D
:101B50000020487202A80190012003E0386801903B
:101B60000020C0433F1D61070CD5002400E0641C29
:101B700000998C420FDA8442F9DB0199095D002952
:101B8000F5D108E0002400E0641C8442FCDB0199EC
:101B9000095D0029F8D1361907E00198019900780C
:101BA000491C0191109A0F999047641EF5D261E08B
:101BB0000A20019001CF002802DA40422D2102E0E4
:101BC000210504D52B216A461172012103E0E107AA
:101BD00001D02021F7E70C9104E00A20019001CF09
:101BE00000210C910BA90B9108E00199FEF780FAF6
:101BF0000A460B993032491E0B910A700028F4D125
:101C00000B9803A9081A20300190600701D50098AD
:101C100001E0012000900199884203DD014601980E
:101C2000081A00E000200024009006E002A8109AA4
:101C3000005D0F999047641C761C0C988442F5DB7C
:101C400004E0109A30200F999047761C0099481EA6
:101C500000900029F5DC08E00B980B990078491CEE
:101C60000B91109A0F999047761C0199481E01908C
:101C70000029F1DC6D1C28E7092801000A68531CC3
:101C80000B6010707047000013B5044B01226946C9
:101C90000348FFF723FB00981CBD0000FFFF000076
:101CA00014000020FEF758FDFFF758FCFFF796FBE5
:101CB000FFF780FBFFF7C8FB0EA0FFF77DFEFF26B6
:101CC000002401360925ED06012231462846FEF79B
:101CD0002EFD0120FEF73AFC002231462846FEF791
:101CE00026FD0220FEF732FC641C642CECDBFEF7C0
:101CF0008BFAFCE7696E69740D0A0000FEB5EE27E9
:101D00006C46099E089D277023276770A070E170BC
:101D100022716371A571FF23072269460A48FFF704
:101D2000DDFA314609A0FFF747FE00202070FF20B2
:101D30006070FC21A170E0702071034605226946A5
:101D40000148FFF7CBFAFEBD140000202573000008
:101D50000100020004000800100020004000800084
:101D60000001000200040008001000200040008074
:101D700000010203040506070F0000000000000038
:101D8000000102030405060708090A0B0C0D0E0FDB
:101D9000000102030405060708090A0B0C0D0E0FCB
:101DA000000102030405060708090A0B0C0D0E0FBB
:101DB000000102030405060708090A0B0C0D0E0FAB
:101DC00002030405060708090A0B0C0D0E0F00009C
:101DD00000000000000000000102030406070809DB
:101DE0000000000001020304081E0008000000209B
:101DF00014000000901A00081C1E000814000020A7
:101E0000CC040000A01A000801000000040000003B
:0C1E10000000000000127A00000000003A
:04000005080000C12E
:00000001FF
